:100000000C9434000C943E000C943E000C943E0082
:100010000C943E000C943E000C943E000C943E0068
:100020000C943E000C943E000C943E000C943E0058
:100030000C943E000C943E000C943E000C943E0048
:100040000C943E000C943E000C943E000C943E0038
:100050000C943E000C943E000C943E000C943E0028
:100060000C943E000C943E0011241FBECFEFD8E04C
:10007000DEBFCDBF0E9440000C9463000C940000D2
:10008000209A41E028EA31E669E170E045B9C9010A
:100090000197F1F715B8C9010197F1F745B9C90101
:1000A0000197F1F715B8C9010197F1F745B9C901F1
:1000B0000197F1F715B880E197E2FB013197F1F76D
:0A00C0000197D9F7E3CFF894FFCFC2
:00000001FF
