:100000000C9434000C943E000C943E000C943E0082
:100010000C943E000C943E000C943E000C943E0068
:100020000C943E000C943E000C943E000C943E0058
:100030000C943E000C943E000C943E000C943E0048
:100040000C943E000C943E000C943E000C943E0038
:100050000C943E000C943E000C943E000C943E0028
:100060000C943E000C943E0011241FBECFEFD8E04C
:10007000DEBFCDBF0E9440000C9461000C940000D4
:100080008FEF84B972E422EE34E061E05CE34FEF7D
:1000900075B9C9010197F1F715B8C9010197F1F7D1
:1000A00065B9C9010197F1F715B8C9010197F1F7D1
:1000B00055B9C9010197F1F745B9C9010197F1F7A0
:0600C000E7CFF894FFCF2A
:00000001FF
