:100000000C9434000C943E000C943E000C943E0082
:100010000C943E000C943E000C943E000C943E0068
:100020000C943E000C943E000C943E000C943E0058
:100030000C943E000C943E000C943E000C943E0048
:100040000C943E000C943E000C943E000C943E0038
:100050000C943E000C943E000C943E000C943E0028
:100060000C943E000C943E0011241FBECFEFD8E04C
:10007000DEBFCDBF0E9440000C9473000C940000C2
:10008000209A8AB1806C8AB9A0E441E024ED30E383
:10009000B0EC69E170E050E8ABB945B9C90101972E
:1000A000F1F7BBB915B8C9010197F1F7ABB945B97B
:1000B00088E893E1FB013197F1F70197D9F75BB934
:1000C00015B8C9010197F1F71BB845B9C9010197E6
:1000D000F1F715B85BB988E893E1FB013197F1F7C7
:0A00E0000197D9F7D9CFF894FFCFAC
:00000001FF
