:100000000C9434000C943E000C943E000C943E0082
:100010000C943E000C943E000C943E000C943E0068
:100020000C943E000C943E000C943E000C943E0058
:100030000C943E000C943E000C943E000C943E0048
:100040000C943E000C943E000C943E000C943E0038
:100050000C943E000C943E000C943E000C943E0028
:100060000C943E000C943E0011241FBECFEFD8E04C
:10007000DEBFCDBF0E9440000C946F000C940000C6
:10008000209A8AB1806C8AB9A0E441E028EA31E67E
:10009000B0EC50E869E170E0ABB945B9C90101972E
:1000A000F1F7BBB915B8C9010197F1F7ABB945B97B
:1000B000C9010197F1F75BB915B8C9010197F1F7CB
:1000C0001BB845B9C9010197F1F715B85BB980E1D3
:1000D00097E2FB013197F1F70197D9F7DDCFF8945B
:0200E000FFCF50
:00000001FF
